:1038000071C00000A4C0000088C0000086C0000095
:1038100084C0000082C0000080C000007EC00000A4
:103820007CC000007AC0000078C0000076C00000B4
:1038300074C0000072C0000070C000006EC00000C4
:103840006CC000006AC0000068C0000066C00000D4
:1038500064C0000062C0000060C000005EC00000E4
:103860005CC000005AC000000403090412036F008A
:1038700062006400650076002E0061007400100391
:1038800048004900440042006F006F0074001201BC
:10389000100100000008C016DF0500010102000150
:1038A0000902220001010080320904000001030026
:1038B0000000092101010001222100070581030800
:1038C00000C80600FF0901A101150026FF007508C8
:1038D000850195060900B20201850295830900B2AF
:1038E0000201C00011241FBECFEFD4E0DEBFCDBF68
:1038F00011E0A0E0B1E0E2E7FFE302C005900D9225
:10390000AA30B107D9F711E0AAE0B1E001C01D92D9
:10391000AB33B107E1F73BD12AC372CFA82FB92F40
:1039200080E090E041E050EA609530E009C02D91E0
:1039300082279795879510F084279527305EC8F3E6
:103940006F5FA8F30895EADF8D939D930895CF9359
:10395000CFB7CF93DF93C3954B9BE9F74B9B0BC03E
:103960004B9B09C04B9B07C04B9B05C04B9B03C0A7
:103970004B9B01C08BC06F93C0911E01DD27CB5DB7
:10398000DE4F2F9365E54B9B03C02F916F91E6CFE0
:103990000F931F934F9320E040E15F9309B10C70A8
:1039A00003FB27F93F9350E03BE039C01C704064B3
:1039B0002F77012F5F5F1EC0406819B11C702F77F1
:1039C00052501FC0406409B12F770C70D1F15F5F76
:1039D00000C023C0406219B12F771C7091F15F5F66
:1039E00000C025C00C701027515012F45D5F00001C
:1039F000115027952C3F19B1C8F61C7001270150B2
:103A000027952C3FC8F64227499309B10C7010271F
:103A10004F73115027952C3FA8F64695469519B13E
:103A20001C7079F00127015027952C3F98F66B5AAE
:103A300060F3315009B1B0F600C011E01CBB0027A3
:103A400019C03B503195C31BD04011E01CBB08810D
:103A5000033C09F10B34F9F020911C011981110F7D
:103A60001213EDCF4A81441F093651F10D3211F086
:103A7000013E29F7009323013F915F914F911F91E0
:103A80000F912F916F91CCB3C0FD65CFDF91CF9196
:103A9000CFBFCF91189520912301222369F3109174
:103AA0002101112349F534304AF13093210120934B
:103AB0001D0110911E013BE0311B30931E011EC001
:103AC000009121010130C4F40AE54F70A9F430914E
:103AD000000134FD14C000930001C1E1D1E013C026
:103AE000052710E000C000000BB91AC0052710E040
:103AF000221F1DC010E021C04AE502C032ED432F55
:103B0000C4E1D0E032E01AB11C605B9A0BB11AB983
:103B10005CE020E865E320FF05270BB927951795A2
:103B20001C3FF0F66695B8F7B1F720FF05270BB9F3
:103B3000279517951C3FD0F62795179517FF052752
:103B400000001C3F0BB9B0F629913A9519F7037F95
:103B500010912201110FC651D0400BB911F01093F2
:103B60001C0111E01CBB08601AB1137F402F437F7A
:103B700054E05A95F1F70BB91AB94BB97DCF98B10A
:103B8000907F98B998B18F70892B88B90895DF9389
:103B9000CF930F92CDB7DEB787B18F6387B980E23D
:103BA00088B9809164008093640087E880937A00EC
:103BB00086E480937C0085E38A95F1F780917A0012
:103BC000806480937A0080917A0086FDFCCF80919A
:103BD0007A00806180937A008091780090917900DA
:103BE00020917A00287F20937A0022E0803092078B
:103BF00008F0A8C181E085BF82E085BF809169009F
:103C0000836080936900E89A539A20E0A89580EA3F
:103C10009FE00197F1F72150C9F75398789400E09D
:103C200010E0CC24DD24EE24FF240894C11CD11C18
:103C300080E2C816D10451F40F5F1F4F812F869583
:103C40008695869590E09BDFCC24DD24A895209175
:103C50002101422F435047FD13C180911E01ACE06A
:103C6000B0E0A81BB109AB5DBE4F80911D018D3244
:103C700009F0BCC0483009F001C183EC8093110108
:103C80008AE58093000110920B019C91292F2076E8
:103C900011968C9111972223E1F0893079F41296D4
:103CA0008C911297823031F410920C0197FD89C0EB
:103CB0002FEF8AC081E080930A0157C1813009F05B
:103CC00054C182E091E09093200180931F0127E08E
:103CD0007FC012969C91129710921A01882331F49A
:103CE00010921B018AE191E022E066C0853019F450
:103CF0009093220157C0863009F04BC013968C91E7
:103D00001397813019F48EE898E31AC0823041F499
:103D100080EA98E39093200180931F0122E235C04E
:103D20008330F1F4992341F488E698E390932001DD
:103D300080931F0124E029C0913041F48CE698E380
:103D40009093200180931F0122E11FC09230E1F483
:103D50008EE798E39093200180931F0120E115C026
:103D6000813241F482EB98E39093200180931F010C
:103D700029E00BC0823241F482EC98E39093200159
:103D800080931F0121E201C020E080E480930B01B9
:103D90001FC0883059F0893019F49093240102C073
:103DA0008A3039F08AE191E020E006C084E291E0B7
:103DB00002C08AE191E021E09093200180931F01ED
:103DC00007C016962C91169780E880930B010BC0C4
:103DD00017968C911797882331F416968C91169725
:103DE000821708F4282F2093010148C080910B010D
:103DF00087FF44C080910D0190910E0150910C01FC
:103E0000552349F411968C91119712969C91129713
:103E10001496422F4750540F50930C015078282F7E
:103E20002F7751F4F89423E0FC0120935700E89594
:103E3000789407B600FCFDCFF8942D913D9161E098
:103E4000FC01090160935700E895112478940296CB
:103E5000282F2F7749F4F89425E020935700E89510
:103E6000789407B600FCFDCF4250C9F690930E013E
:103E700080930D01552311F0109201011092210140
:103E80008091000184FF49C0809101018F3F09F4B6
:103E900044C0282F893008F028E0821B809301015C
:103EA0008091110198E8892780931101222339F12B
:103EB000E0911F01F091200190910B01822F815020
:103EC00096FF0CC090E08D5E9E4FA2E1B1E0349170
:103ED0003D933196A817B907D1F70DC0AF0190E017
:103EE0008D5E9E4FA2E1B1E0FA013191AF013D93A9
:103EF000A817B907C9F7F0932001E0931F0182E1E9
:103F000091E0622F29831FDD29812C5F2C3019F06D
:103F10008FEF809301012093000184E199B19C709F
:103F200031F48150D9F71092220110921C01809136
:103F30000A01882309F479CEFA9409F076CEEA943E
:103F400009F073CE8FE090E01ADEF89481E180935F
:103F50005700E8951DBA1092690081E085BF15BE33
:103F6000E0910F01F0911001099520E031CFF89414
:023F7000FFCF81
:0A3F72005AFF01800000400000002B
:0400000300003800C1
:00000001FF
