:100000000C9434000C9451000C9451000C94510049
:100010000C9451000C9451000C9451000C9451001C
:100020000C9451000C9451000C9451000C9451000C
:100030000C9451000C9451000C9451000C945100FC
:100040000C9451000C9451000C9451000C945100EC
:100050000C9451000C9451000C9451000C945100DC
:100060000C9451000C94510011241FBECFEFD4E02A
:10007000DEBFCDBF11E0A0E0B1E0E8EDF0E002C0EE
:1000800005900D92A030B107D9F711E0A0E0B1E0E2
:1000900001C01D92A030B107E1F70E9453000C94FB
:1000A0006A000C94000087B18F6387B988B18F73A1
:1000B00088B988B1856188B94FE329E130E088B11A
:1000C000842788B988E893E1F9013197F1F701971E
:0800D000D9F7F5CFF894FFCF3A
:00000001FF
